{
    "abi": [
        {
            "type": "constructor",
            "inputs": [],
            "stateMutability": "nonpayable"
        },
        {
            "type": "function",
            "name": "distributeReturns",
            "inputs": [],
            "outputs": [],
            "stateMutability": "payable"
        },
        {
            "type": "function",
            "name": "getContractBalance",
            "inputs": [],
            "outputs": [
                {
                    "name": "",
                    "type": "uint256",
                    "internalType": "uint256"
                }
            ],
            "stateMutability": "view"
        },
        {
            "type": "function",
            "name": "invest",
            "inputs": [],
            "outputs": [],
            "stateMutability": "payable"
        },
        {
            "type": "function",
            "name": "investments",
            "inputs": [
                {
                    "name": "",
                    "type": "address",
                    "internalType": "address"
                }
            ],
            "outputs": [
                {
                    "name": "",
                    "type": "uint256",
                    "internalType": "uint256"
                }
            ],
            "stateMutability": "view"
        },
        {
            "type": "function",
            "name": "investors",
            "inputs": [
                {
                    "name": "",
                    "type": "uint256",
                    "internalType": "uint256"
                }
            ],
            "outputs": [
                {
                    "name": "",
                    "type": "address",
                    "internalType": "address"
                }
            ],
            "stateMutability": "view"
        },
        {
            "type": "function",
            "name": "owner",
            "inputs": [],
            "outputs": [
                {
                    "name": "",
                    "type": "address",
                    "internalType": "address"
                }
            ],
            "stateMutability": "view"
        },
        {
            "type": "function",
            "name": "totalInvested",
            "inputs": [],
            "outputs": [
                {
                    "name": "",
                    "type": "uint256",
                    "internalType": "uint256"
                }
            ],
            "stateMutability": "view"
        },
        {
            "type": "event",
            "name": "Invested",
            "inputs": [
                {
                    "name": "investor",
                    "type": "address",
                    "indexed": true,
                    "internalType": "address"
                },
                {
                    "name": "amount",
                    "type": "uint256",
                    "indexed": false,
                    "internalType": "uint256"
                }
            ],
            "anonymous": false
        },
        {
            "type": "event",
            "name": "ReturnPaid",
            "inputs": [
                {
                    "name": "investor",
                    "type": "address",
                    "indexed": true,
                    "internalType": "address"
                },
                {
                    "name": "amount",
                    "type": "uint256",
                    "indexed": false,
                    "internalType": "uint256"
                }
            ],
            "anonymous": false
        }
    ],
    "bytecode": {
        "object": "0x6080604052348015600e575f5ffd5b50335f5f6101000a81548173ffffffffffffffffffffffffffffffffffffffff021916908373ffffffffffffffffffffffffffffffffffffffff160217905550610b588061005b5f395ff3fe60806040526004361061006f575f3560e01c80638da5cb5b1161004d5780638da5cb5b14610103578063951d48d71461012d57806396b9886214610137578063e8b5e51f146101735761006f565b80633feb5f2b146100735780635216aeec146100af5780636f9fb98a146100d9575b5f5ffd5b34801561007e575f5ffd5b506100996004803603810190610094919061069e565b61017d565b6040516100a69190610708565b60405180910390f35b3480156100ba575f5ffd5b506100c36101b8565b6040516100d09190610730565b60405180910390f35b3480156100e4575f5ffd5b506100ed6101be565b6040516100fa9190610730565b60405180910390f35b34801561010e575f5ffd5b506101176101c5565b6040516101249190610708565b60405180910390f35b6101356101e9565b005b348015610142575f5ffd5b5061015d60048036038101906101589190610773565b6104b0565b60405161016a9190610730565b60405180910390f35b61017b6104c5565b005b6003818154811061018c575f80fd5b905f5260205f20015f915054906101000a900473ffffffffffffffffffffffffffffffffffffffff1681565b60015481565b5f47905090565b5f5f9054906101000a900473ffffffffffffffffffffffffffffffffffffffff1681565b5f5f9054906101000a900473ffffffffffffffffffffffffffffffffffffffff1673ffffffffffffffffffffffffffffffffffffffff163373ffffffffffffffffffffffffffffffffffffffff1614610277576040517f08c379a000000000000000000000000000000000000000000000000000000000815260040161026e906107f8565b60405180910390fd5b5f34116102b9576040517f08c379a00000000000000000000000000000000000000000000000000000000081526004016102b090610860565b60405180910390fd5b5f600154116102fd576040517f08c379a00000000000000000000000000000000000000000000000000000000081526004016102f4906108c8565b60405180910390fd5b5f5f90505b6003805490508110156104ad575f60038281548110610324576103236108e6565b5b905f5260205f20015f9054906101000a900473ffffffffffffffffffffffffffffffffffffffff1690505f60015460025f8473ffffffffffffffffffffffffffffffffffffffff1673ffffffffffffffffffffffffffffffffffffffff1681526020019081526020015f20543461039b9190610940565b6103a591906109ae565b90505f8273ffffffffffffffffffffffffffffffffffffffff16826040516103cc90610a0b565b5f6040518083038185875af1925050503d805f8114610406576040519150601f19603f3d011682016040523d82523d5f602084013e61040b565b606091505b505090508061044f576040517f08c379a000000000000000000000000000000000000000000000000000000000815260040161044690610a69565b60405180910390fd5b8273ffffffffffffffffffffffffffffffffffffffff167f457c6b591692a5d800eec0646261f7533adf0572c2d64d8c798aefba82003112836040516104959190610730565b60405180910390a25050508080600101915050610302565b50565b6002602052805f5260405f205f915090505481565b5f3411610507576040517f08c379a00000000000000000000000000000000000000000000000000000000081526004016104fe90610ad1565b60405180910390fd5b5f60025f3373ffffffffffffffffffffffffffffffffffffffff1673ffffffffffffffffffffffffffffffffffffffff1681526020019081526020015f2054036105ac57600333908060018154018082558091505060019003905f5260205f20015f9091909190916101000a81548173ffffffffffffffffffffffffffffffffffffffff021916908373ffffffffffffffffffffffffffffffffffffffff1602179055505b3460025f3373ffffffffffffffffffffffffffffffffffffffff1673ffffffffffffffffffffffffffffffffffffffff1681526020019081526020015f205f8282546105f89190610aef565b925050819055503460015f8282546106109190610aef565b925050819055503373ffffffffffffffffffffffffffffffffffffffff167fc3f75dfc78f6efac88ad5abb5e606276b903647d97b2a62a1ef89840a658bbc33460405161065d9190610730565b60405180910390a2565b5f5ffd5b5f819050919050565b61067d8161066b565b8114610687575f5ffd5b50565b5f8135905061069881610674565b92915050565b5f602082840312156106b3576106b2610667565b5b5f6106c08482850161068a565b91505092915050565b5f73ffffffffffffffffffffffffffffffffffffffff82169050919050565b5f6106f2826106c9565b9050919050565b610702816106e8565b82525050565b5f60208201905061071b5f8301846106f9565b92915050565b61072a8161066b565b82525050565b5f6020820190506107435f830184610721565b92915050565b610752816106e8565b811461075c575f5ffd5b50565b5f8135905061076d81610749565b92915050565b5f6020828403121561078857610787610667565b5b5f6107958482850161075f565b91505092915050565b5f82825260208201905092915050565b7f4e6f74206f776e657200000000000000000000000000000000000000000000005f82015250565b5f6107e260098361079e565b91506107ed826107ae565b602082019050919050565b5f6020820190508181035f83015261080f816107d6565b9050919050565b7f4e6f204554482073656e740000000000000000000000000000000000000000005f82015250565b5f61084a600b8361079e565b915061085582610816565b602082019050919050565b5f6020820190508181035f8301526108778161083e565b9050919050565b7f4e6f20696e766573746f727300000000000000000000000000000000000000005f82015250565b5f6108b2600c8361079e565b91506108bd8261087e565b602082019050919050565b5f6020820190508181035f8301526108df816108a6565b9050919050565b7f4e487b71000000000000000000000000000000000000000000000000000000005f52603260045260245ffd5b7f4e487b71000000000000000000000000000000000000000000000000000000005f52601160045260245ffd5b5f61094a8261066b565b91506109558361066b565b92508282026109638161066b565b9150828204841483151761097a57610979610913565b5b5092915050565b7f4e487b71000000000000000000000000000000000000000000000000000000005f52601260045260245ffd5b5f6109b88261066b565b91506109c38361066b565b9250826109d3576109d2610981565b5b828204905092915050565b5f81905092915050565b50565b5f6109f65f836109de565b9150610a01826109e8565b5f82019050919050565b5f610a15826109eb565b9150819050919050565b7f5472616e73666572206661696c656400000000000000000000000000000000005f82015250565b5f610a53600f8361079e565b9150610a5e82610a1f565b602082019050919050565b5f6020820190508181035f830152610a8081610a47565b9050919050565b7f4d7573742073656e6420455448000000000000000000000000000000000000005f82015250565b5f610abb600d8361079e565b9150610ac682610a87565b602082019050919050565b5f6020820190508181035f830152610ae881610aaf565b9050919050565b5f610af98261066b565b9150610b048361066b565b9250828201905080821115610b1c57610b1b610913565b5b9291505056fea264697066735822122077e422652a35098546a27eb9019f28e01913db87f49d7f75aeefe1324045044664736f6c634300081e0033",
        "linkReferences": {}
    },
    "methodIdentifiers": {
        "distributeReturns()": "951d48d7",
        "getContractBalance()": "6f9fb98a",
        "invest()": "e8b5e51f",
        "investments(address)": "96b98862",
        "investors(uint256)": "3feb5f2b",
        "owner()": "8da5cb5b",
        "totalInvested()": "5216aeec"
    },
    "id": 19
}